{
    "contractName": "Eleicao",
    "abi": [
        {
            "inputs": [],
            "stateMutability": "nonpayable",
            "type": "constructor"
        },
        {
            "anonymous": false,
            "inputs": [
                {
                    "indexed": false,
                    "internalType": "string",
                    "name": "nome",
                    "type": "string"
                },
                {
                    "indexed": false,
                    "internalType": "string",
                    "name": "bi",
                    "type": "string"
                }
            ],
            "name": "DireitoVoto",
            "type": "event"
        },
        {
            "anonymous": false,
            "inputs": [
                {
                    "indexed": false,
                    "internalType": "string",
                    "name": "nome",
                    "type": "string"
                },
                {
                    "indexed": false,
                    "internalType": "string",
                    "name": "bi",
                    "type": "string"
                },
                {
                    "indexed": false,
                    "internalType": "address",
                    "name": "endereco",
                    "type": "address"
                }
            ],
            "name": "Registado",
            "type": "event"
        },
        {
            "anonymous": false,
            "inputs": [
                {
                    "indexed": false,
                    "internalType": "bool",
                    "name": "votou",
                    "type": "bool"
                }
            ],
            "name": "Votado",
            "type": "event"
        },
        {
            "inputs": [
                {
                    "internalType": "string",
                    "name": "",
                    "type": "string"
                }
            ],
            "name": "bilhetes",
            "outputs": [
                {
                    "internalType": "bool",
                    "name": "",
                    "type": "bool"
                }
            ],
            "stateMutability": "view",
            "type": "function"
        },
        {
            "inputs": [
                {
                    "internalType": "uint256",
                    "name": "",
                    "type": "uint256"
                }
            ],
            "name": "candidatos",
            "outputs": [
                {
                    "internalType": "uint256",
                    "name": "id",
                    "type": "uint256"
                },
                {
                    "internalType": "string",
                    "name": "nome",
                    "type": "string"
                },
                {
                    "internalType": "uint256",
                    "name": "numeroVoto",
                    "type": "uint256"
                }
            ],
            "stateMutability": "view",
            "type": "function"
        },
        {
            "inputs": [
                {
                    "internalType": "address",
                    "name": "endereco",
                    "type": "address"
                },
                {
                    "internalType": "string",
                    "name": "bi",
                    "type": "string"
                },
                {
                    "internalType": "uint256",
                    "name": "id",
                    "type": "uint256"
                }
            ],
            "name": "darDireitoDeVoto",
            "outputs": [],
            "stateMutability": "nonpayable",
            "type": "function"
        },
        {
            "inputs": [
                {
                    "internalType": "address",
                    "name": "",
                    "type": "address"
                }
            ],
            "name": "eleitor",
            "outputs": [
                {
                    "internalType": "uint256",
                    "name": "id",
                    "type": "uint256"
                },
                {
                    "internalType": "string",
                    "name": "nome",
                    "type": "string"
                },
                {
                    "internalType": "string",
                    "name": "bi",
                    "type": "string"
                },
                {
                    "internalType": "bool",
                    "name": "voto",
                    "type": "bool"
                },
                {
                    "internalType": "bool",
                    "name": "direito",
                    "type": "bool"
                },
                {
                    "internalType": "bool",
                    "name": "registo",
                    "type": "bool"
                },
                {
                    "internalType": "address",
                    "name": "endereco",
                    "type": "address"
                }
            ],
            "stateMutability": "view",
            "type": "function"
        },
        {
            "inputs": [
                {
                    "internalType": "uint256",
                    "name": "",
                    "type": "uint256"
                }
            ],
            "name": "listaEleitores",
            "outputs": [
                {
                    "internalType": "uint256",
                    "name": "id",
                    "type": "uint256"
                },
                {
                    "internalType": "string",
                    "name": "nome",
                    "type": "string"
                },
                {
                    "internalType": "string",
                    "name": "bi",
                    "type": "string"
                },
                {
                    "internalType": "bool",
                    "name": "voto",
                    "type": "bool"
                },
                {
                    "internalType": "bool",
                    "name": "direito",
                    "type": "bool"
                },
                {
                    "internalType": "bool",
                    "name": "registo",
                    "type": "bool"
                },
                {
                    "internalType": "address",
                    "name": "endereco",
                    "type": "address"
                }
            ],
            "stateMutability": "view",
            "type": "function"
        },
        {
            "inputs": [],
            "name": "numeroCandidatos",
            "outputs": [
                {
                    "internalType": "uint256",
                    "name": "",
                    "type": "uint256"
                }
            ],
            "stateMutability": "view",
            "type": "function"
        },
        {
            "inputs": [],
            "name": "numeroEleitores",
            "outputs": [
                {
                    "internalType": "uint256",
                    "name": "",
                    "type": "uint256"
                }
            ],
            "stateMutability": "view",
            "type": "function"
        },
        {
            "inputs": [],
            "name": "presidente",
            "outputs": [
                {
                    "internalType": "address",
                    "name": "",
                    "type": "address"
                }
            ],
            "stateMutability": "view",
            "type": "function"
        },
        {
            "inputs": [
                {
                    "internalType": "string",
                    "name": "nome",
                    "type": "string"
                },
                {
                    "internalType": "string",
                    "name": "bi",
                    "type": "string"
                },
                {
                    "internalType": "address",
                    "name": "endereco",
                    "type": "address"
                }
            ],
            "name": "registarEleitor",
            "outputs": [],
            "stateMutability": "nonpayable",
            "type": "function"
        },
        {
            "inputs": [
                {
                    "internalType": "uint256",
                    "name": "candidatoId",
                    "type": "uint256"
                }
            ],
            "name": "votar",
            "outputs": [],
            "stateMutability": "nonpayable",
            "type": "function"
        }
    ],
    "bytecode": "60806040523480156200001157600080fd5b50604080518082019091526007815266416e746f6e696f60c81b60208201526200003b90620000c6565b6040805180820190915260048152634a6f736560e01b60208201526200006190620000c6565b604080518082019091526005815264427561696f60d81b60208201526200008890620000c6565b6040805180820190915260048152635465636160e01b6020820152620000ae90620000c6565b600080546001600160a01b0319163317905562000243565b60028054906000620000d883620001dc565b909155505060408051606081018252600254808252602080830185815260008486018190529283526005825293909120825181559251805192939262000125926001850192019062000136565b506040820151816002015590505050565b828054620001449062000206565b90600052602060002090601f016020900481019282620001685760008555620001b3565b82601f106200018357805160ff1916838001178555620001b3565b82800160010185558215620001b3579182015b82811115620001b357825182559160200191906001019062000196565b50620001c1929150620001c5565b5090565b5b80821115620001c15760008155600101620001c6565b6000600019821415620001ff57634e487b7160e01b600052601160045260246000fd5b5060010190565b600181811c908216806200021b57607f821691505b602082108114156200023d57634e487b7160e01b600052602260045260246000fd5b50919050565b61141080620002536000396000f3fe608060405234801561001057600080fd5b506004361061009e5760003560e01c8063a01d3f5711610066578063a01d3f571461012f578063b4626de21461015a578063c1e8811b1461016d578063d6b8f46114610184578063fdd97841146101c257600080fd5b806321606831146100a35780636720853e146100b857806375150066146100e75780638f023f85146100fa5780639ea843001461011c575b600080fd5b6100b66100b1366004610ec2565b6101cb565b005b6100cb6100c6366004610ec2565b61058a565b6040516100de9796959493929190610f37565b60405180910390f35b6100cb6100f5366004610fae565b6106ea565b61010d610108366004610ec2565b61070c565b6040516100de93929190610fd0565b6100b661012a36600461109c565b6107b7565b600054610142906001600160a01b031681565b6040516001600160a01b0390911681526020016100de565b6100b66101683660046110f3565b610a82565b61017660015481565b6040519081526020016100de565b6101b2610192366004611167565b805160208183018101805160038252928201919093012091525460ff1681565b60405190151581526020016100de565b61017660025481565b336000908152600460209081526040808320815160e08101909252805482526001810180549293919291840191610201906111a4565b80601f016020809104026020016040519081016040528092919081815260200182805461022d906111a4565b801561027a5780601f1061024f5761010080835404028352916020019161027a565b820191906000526020600020905b81548152906001019060200180831161025d57829003601f168201915b50505050508152602001600282018054610293906111a4565b80601f01602080910402602001604051908101604052809291908181526020018280546102bf906111a4565b801561030c5780601f106102e15761010080835404028352916020019161030c565b820191906000526020600020905b8154815290600101906020018083116102ef57829003601f168201915b50505091835250506003919091015460ff8082161515602084015261010082048116151560408401526201000082041615156060830152630100000090046001600160a01b03908116608090920191909152600054919250163314156103d05760405162461bcd60e51b815260206004820152602e60248201527f4e616f20736520706f646520766f74617220636f6d206f20656e64657265636f60448201526d20646f20707265736964656e746560901b60648201526084015b60405180910390fd5b608081015115156001146104425760405162461bcd60e51b815260206004820152603360248201527f4f20656c6569746f722061696e6461206e616f206c686520666f69206461646f6044820152721037903234b932b4ba37903232903b37ba379760691b60648201526084016103c7565b60608101511561048a5760405162461bcd60e51b8152602060048201526013602482015272279032b632b4ba37b9103530903b37ba37ba9760691b60448201526064016103c7565b60008211801561049c57506002548211155b6104fc5760405162461bcd60e51b815260206004820152602b60248201527f496e76616c6964616465206e6f2049442065206e6f206e756d65726f2064652060448201526a31b0b73234b230ba37b99760a91b60648201526084016103c7565b60c08101516001600160a01b03166000908152600460209081526040808320600301805460ff1916600117905584835260059091528120600201805491610542836111df565b91905055507f716ec9ce939c49b3520f305835aae63cb093355fceab2fe0cf4efeba164f1887816060015160405161057e911515815260200190565b60405180910390a15050565b600660205260009081526040902080546001820180549192916105ac906111a4565b80601f01602080910402602001604051908101604052809291908181526020018280546105d8906111a4565b80156106255780601f106105fa57610100808354040283529160200191610625565b820191906000526020600020905b81548152906001019060200180831161060857829003601f168201915b50505050509080600201805461063a906111a4565b80601f0160208091040260200160405190810160405280929190818152602001828054610666906111a4565b80156106b35780601f10610688576101008083540402835291602001916106b3565b820191906000526020600020905b81548152906001019060200180831161069657829003601f168201915b5050506003909301549192505060ff80821691610100810482169162010000820416906001600160a01b0363010000009091041687565b600460205260009081526040902080546001820180549192916105ac906111a4565b6005602052600090815260409020805460018201805491929161072e906111a4565b80601f016020809104026020016040519081016040528092919081815260200182805461075a906111a4565b80156107a75780601f1061077c576101008083540402835291602001916107a7565b820191906000526020600020905b81548152906001019060200180831161078a57829003601f168201915b5050505050908060020154905083565b6040518060600160405280602d815260200161138d602d913960005481906001600160a01b031633146107fd5760405162461bcd60e51b81526004016103c79190611208565b5060038360405161080e919061121b565b9081526040519081900360200190205460ff161515600114801561085857506001600160a01b03841660009081526004602052604090206003015462010000900460ff1615156001145b80156108ca57506001600160a01b038416600090815260046020908152604091829020915161088b926002019101611237565b60405160208183030381529060405280519060200120836040516020016108b2919061121b565b60405160208183030381529060405280519060200120145b61090e5760405162461bcd60e51b8152602060048201526015602482015274456c6569746f72206e616f2072656769737461646f60581b60448201526064016103c7565b6001600160a01b03841660009081526004602052604090206003015460ff16156109705760405162461bcd60e51b8152602060048201526013602482015272279032b632b4ba37b9103530903b37ba37ba9760691b60448201526064016103c7565b6001600160a01b038416600090815260046020526040902060030154610100900460ff16156109f55760405162461bcd60e51b815260206004820152602b60248201527f4f20656c6569746f72206a61206c686520666f69206461646f206f206469726560448201526a69746f20646520766f746f60a81b60648201526084016103c7565b60008281526006602090815260408083206003908101805461010061ff001991821681179092556001600160a01b038a1686526004909452938290209081018054909316909317909155517fff2648476d2edaa5dddd0516b75c06473f35dfca2fb5e071ee8497ddf58c1d0891610a7491600182019160020190611320565b60405180910390a150505050565b6040518060600160405280602181526020016113ba6021913960005481906001600160a01b03163314610ac85760405162461bcd60e51b81526004016103c79190611208565b506001600160a01b03808316600081815260046020526040902060030154630100000090049091161415610b4f5760405162461bcd60e51b815260206004820152602860248201527f4f20656e64657265636f206a6120666f692061747269627569646f206120756d6044820152671032b632b4ba37b960c11b60648201526084016103c7565b600383604051610b5f919061121b565b9081526040519081900360200190205460ff1615610bb75760405162461bcd60e51b81526020600482015260156024820152744f204249206a6120666f692072656769737461646f60581b60448201526064016103c7565b60018054906000610bc7836111df565b91905055506001600384604051610bde919061121b565b9081526040805160209281900383018120805460ff19169415159490941790935560e083018152600180548085528385018981528584018990526000606087018190526080870181905260a087018490526001600160a01b03891660c08801529182526006855292902084518155915180519293610c629392850192910190610e29565b5060408201518051610c7e916002840191602090910190610e29565b50606082810151600392909201805460808086015160a08088015160c09889015161ffff1990951697151561ff00191697909717610100921515929092029190911762010000600160b81b03191662010000961515969096026301000000600160b81b0319169590951763010000006001600160a01b0393841602179092556040805160e08101825260018054825260208083018d81528385018d905260009784018890529583018790529682018190529289169681018790529584526004855290922084518155905180519193610d5b93850192910190610e29565b5060408201518051610d77916002840191602090910190610e29565b50606082015160039091018054608084015160a085015160c0909501516001600160a01b03166301000000026301000000600160b81b031995151562010000029590951662010000600160b81b03199115156101000261ff00199515159590951661ffff19909316929092179390931792909216919091179190911790556040517fa66fbd65918717afd1941b17760e4f2c28c5d0f7fca7b0cb28553e46e1dfed6990610a749086908690869061134e565b828054610e35906111a4565b90600052602060002090601f016020900481019282610e575760008555610e9d565b82601f10610e7057805160ff1916838001178555610e9d565b82800160010185558215610e9d579182015b82811115610e9d578251825591602001919060010190610e82565b50610ea9929150610ead565b5090565b5b80821115610ea95760008155600101610eae565b600060208284031215610ed457600080fd5b5035919050565b60005b83811015610ef6578181015183820152602001610ede565b83811115610f05576000848401525b50505050565b60008151808452610f23816020860160208601610edb565b601f01601f19169290920160200192915050565b87815260e060208201526000610f5060e0830189610f0b565b8281036040840152610f628189610f0b565b96151560608401525050921515608084015290151560a08301526001600160a01b031660c0909101529392505050565b80356001600160a01b0381168114610fa957600080fd5b919050565b600060208284031215610fc057600080fd5b610fc982610f92565b9392505050565b838152606060208201526000610fe96060830185610f0b565b9050826040830152949350505050565b634e487b7160e01b600052604160045260246000fd5b600082601f83011261102057600080fd5b813567ffffffffffffffff8082111561103b5761103b610ff9565b604051601f8301601f19908116603f0116810190828211818310171561106357611063610ff9565b8160405283815286602085880101111561107c57600080fd5b836020870160208301376000602085830101528094505050505092915050565b6000806000606084860312156110b157600080fd5b6110ba84610f92565b9250602084013567ffffffffffffffff8111156110d657600080fd5b6110e28682870161100f565b925050604084013590509250925092565b60008060006060848603121561110857600080fd5b833567ffffffffffffffff8082111561112057600080fd5b61112c8783880161100f565b9450602086013591508082111561114257600080fd5b5061114f8682870161100f565b92505061115e60408501610f92565b90509250925092565b60006020828403121561117957600080fd5b813567ffffffffffffffff81111561119057600080fd5b61119c8482850161100f565b949350505050565b600181811c908216806111b857607f821691505b602082108114156111d957634e487b7160e01b600052602260045260246000fd5b50919050565b600060001982141561120157634e487b7160e01b600052601160045260246000fd5b5060010190565b602081526000610fc96020830184610f0b565b6000825161122d818460208701610edb565b9190910192915050565b6000808354611245816111a4565b6001828116801561125d576001811461126e5761129d565b60ff1984168752828701945061129d565b8760005260208060002060005b858110156112945781548a82015290840190820161127b565b50505082870194505b50929695505050505050565b600081546112b6816111a4565b8085526020600183811680156112d357600181146112e757611315565b60ff19851688840152604088019550611315565b866000528260002060005b8581101561130d5781548a82018601529083019084016112f2565b890184019650505b505050505092915050565b60408152600061133360408301856112a9565b828103602084015261134581856112a9565b95945050505050565b6060815260006113616060830186610f0b565b82810360208401526113738186610f0b565b91505060018060a01b038316604083015294935050505056fe4170656e6173206f20707265736964656e746520706f646520646172206469726569746f20646520766f746f2e4170656e6173206f20707265736964656e746520706f6465207265676973746172a26469706673582212205f167ed864e72464fd1203f627edb2fe378a7d48e1e60eac966dc11840bd307e64736f6c63430008090033",
    "sourcePath": "d:/Users/António Teca/Documentos/EthereumProject/e-voting/contracts/Eleicao.sol",
    "compiler": {
        "name": "solc",
        "version": "0.8.9+commit.e5eed63a"
    },
    "functionHashes": {
        "bilhetes(string)": "d6b8f461",
        "candidatos(uint256)": "8f023f85",
        "darDireitoDeVoto(address,string,uint256)": "9ea84300",
        "eleitor(address)": "75150066",
        "listaEleitores(uint256)": "6720853e",
        "numeroCandidatos()": "fdd97841",
        "numeroEleitores()": "c1e8811b",
        "presidente()": "a01d3f57",
        "registarEleitor(string,string,address)": "b4626de2",
        "votar(uint256)": "21606831"
    },
    "gasEstimates": {
        "creation": {
            "codeDepositCost": "1027200",
            "executionCost": "infinite",
            "totalCost": "infinite"
        },
        "external": {
            "bilhetes(string)": "infinite",
            "candidatos(uint256)": "infinite",
            "darDireitoDeVoto(address,string,uint256)": "infinite",
            "eleitor(address)": "infinite",
            "listaEleitores(uint256)": "infinite",
            "numeroCandidatos()": "2383",
            "numeroEleitores()": "2339",
            "presidente()": "2337",
            "registarEleitor(string,string,address)": "infinite",
            "votar(uint256)": "infinite"
        },
        "internal": {
            "adicionarCandidato(string memory)": "infinite"
        }
    }
}