{
  "contractName": "Eleicao",
  "abi": [
    {
      "inputs": [],
      "payable": false,
      "stateMutability": "nonpayable",
      "type": "constructor"
    },
    {
      "constant": true,
      "inputs": [
        {
          "internalType": "uint256",
          "name": "",
          "type": "uint256"
        }
      ],
      "name": "candidatos",
      "outputs": [
        {
          "internalType": "uint256",
          "name": "id",
          "type": "uint256"
        },
        {
          "internalType": "string",
          "name": "nome",
          "type": "string"
        },
        {
          "internalType": "uint256",
          "name": "numeroVoto",
          "type": "uint256"
        }
      ],
      "payable": false,
      "stateMutability": "view",
      "type": "function"
    },
    {
      "constant": true,
      "inputs": [],
      "name": "numeroCandidatos",
      "outputs": [
        {
          "internalType": "uint256",
          "name": "",
          "type": "uint256"
        }
      ],
      "payable": false,
      "stateMutability": "view",
      "type": "function"
    }
  ],
  "bytecode": "0x608060405234801561001057600080fd5b506100556040518060400160405280600781526020017f416e746f6e696f0000000000000000000000000000000000000000000000000081525061012660201b60201c565b6100996040518060400160405280600481526020017f4a6f73650000000000000000000000000000000000000000000000000000000081525061012660201b60201c565b6100dd6040518060400160405280600581526020017f427561696f00000000000000000000000000000000000000000000000000000081525061012660201b60201c565b6101216040518060400160405280600481526020017f546563610000000000000000000000000000000000000000000000000000000081525061012660201b60201c565b610246565b60016000815480929190600101919050555060405180606001604052806001548152602001828152602001600081525060008060015481526020019081526020016000206000820151816000015560208201518160010190805190602001906101909291906101a1565b506040820151816002015590505050565b828054600181600116156101000203166002900490600052602060002090601f016020900481019282601f106101e257805160ff1916838001178555610210565b82800160010185558215610210579182015b8281111561020f5782518255916020019190600101906101f4565b5b50905061021d9190610221565b5090565b61024391905b8082111561023f576000816000905550600101610227565b5090565b90565b61020b806102556000396000f3fe608060405234801561001057600080fd5b50600436106100365760003560e01c80638f023f851461003b578063fdd97841146100f0575b600080fd5b6100676004803603602081101561005157600080fd5b810190808035906020019092919050505061010e565b6040518084815260200180602001838152602001828103825284818151815260200191508051906020019080838360005b838110156100b3578082015181840152602081019050610098565b50505050905090810190601f1680156100e05780820380516001836020036101000a031916815260200191505b5094505050505060405180910390f35b6100f86101d0565b6040518082815260200191505060405180910390f35b6000602052806000526040600020600091509050806000015490806001018054600181600116156101000203166002900480601f0160208091040260200160405190810160405280929190818152602001828054600181600116156101000203166002900480156101c05780601f10610195576101008083540402835291602001916101c0565b820191906000526020600020905b8154815290600101906020018083116101a357829003601f168201915b5050505050908060020154905083565b6001548156fea265627a7a72315820f3fcd2e63c6f8a513432aedca884e686b25e621dc7a6f94498fea58f2d3d876464736f6c63430005100032",
  "source": "//SPDX-License-Identifier: MIT\r\npragma solidity >=0.5.16 <0.9.0;\r\n\r\ncontract Eleicao {\r\n\r\n    constructor() public {\r\n        adicionarCandidato(\"Antonio\");\r\n        adicionarCandidato(\"Jose\");\r\n        adicionarCandidato(\"Buaio\");\r\n        adicionarCandidato(\"Teca\");\r\n    }\r\n\r\n    struct Candidatos {\r\n        uint id;\r\n        string nome;\r\n        uint numeroVoto;\r\n    }\r\n\r\n    mapping(uint => Candidatos) public candidatos;\r\n\r\n    uint public numeroCandidatos;\r\n\r\n    function adicionarCandidato(string memory nome) private {\r\n        numeroCandidatos++;\r\n        candidatos[numeroCandidatos] = Candidatos(numeroCandidatos, nome, 0);\r\n    }\r\n}\r\n",
  "sourcePath": "D:\\Users\\António Teca\\Documentos\\EthereumProject\\e-voting\\contracts\\Eleicao.sol",
  "compiler": {
    "name": "solc",
    "version": "0.5.16+commit.9c3226ce.Emscripten.clang"
  },
  "schemaVersion": "3.4.3",
  "updatedAt": "2021-09-21T12:15:57.608Z",
  "networkType": "ethereum",
  "devdoc": {
    "methods": {}
  },
  "userdoc": {
    "methods": {}
  }
}