{
  "contractName": "Eleicao",
  "abi": [
    {
      "inputs": [],
      "payable": false,
      "stateMutability": "nonpayable",
      "type": "constructor"
    },
    {
      "anonymous": false,
      "inputs": [
        {
          "indexed": false,
          "internalType": "string",
          "name": "nome",
          "type": "string"
        },
        {
          "indexed": false,
          "internalType": "string",
          "name": "bi",
          "type": "string"
        }
      ],
      "name": "DireitoVoto",
      "type": "event"
    },
    {
      "anonymous": false,
      "inputs": [
        {
          "indexed": false,
          "internalType": "string",
          "name": "nome",
          "type": "string"
        },
        {
          "indexed": false,
          "internalType": "string",
          "name": "bi",
          "type": "string"
        },
        {
          "indexed": false,
          "internalType": "address",
          "name": "endereco",
          "type": "address"
        }
      ],
      "name": "Registado",
      "type": "event"
    },
    {
      "anonymous": false,
      "inputs": [
        {
          "indexed": false,
          "internalType": "string",
          "name": "nome",
          "type": "string"
        }
      ],
      "name": "RegistadoCandidato",
      "type": "event"
    },
    {
      "anonymous": false,
      "inputs": [
        {
          "indexed": false,
          "internalType": "string",
          "name": "votou",
          "type": "string"
        }
      ],
      "name": "Votado",
      "type": "event"
    },
    {
      "constant": true,
      "inputs": [
        {
          "internalType": "string",
          "name": "",
          "type": "string"
        }
      ],
      "name": "bilhetes",
      "outputs": [
        {
          "internalType": "bool",
          "name": "",
          "type": "bool"
        }
      ],
      "payable": false,
      "stateMutability": "view",
      "type": "function"
    },
    {
      "constant": true,
      "inputs": [
        {
          "internalType": "uint256",
          "name": "",
          "type": "uint256"
        }
      ],
      "name": "candidatos",
      "outputs": [
        {
          "internalType": "uint256",
          "name": "id",
          "type": "uint256"
        },
        {
          "internalType": "string",
          "name": "nome",
          "type": "string"
        },
        {
          "internalType": "uint256",
          "name": "numeroVoto",
          "type": "uint256"
        }
      ],
      "payable": false,
      "stateMutability": "view",
      "type": "function"
    },
    {
      "constant": true,
      "inputs": [
        {
          "internalType": "address",
          "name": "",
          "type": "address"
        }
      ],
      "name": "eleitor",
      "outputs": [
        {
          "internalType": "uint256",
          "name": "id",
          "type": "uint256"
        },
        {
          "internalType": "string",
          "name": "nome",
          "type": "string"
        },
        {
          "internalType": "string",
          "name": "bi",
          "type": "string"
        },
        {
          "internalType": "bool",
          "name": "voto",
          "type": "bool"
        },
        {
          "internalType": "bool",
          "name": "direito",
          "type": "bool"
        },
        {
          "internalType": "bool",
          "name": "registo",
          "type": "bool"
        },
        {
          "internalType": "address",
          "name": "endereco",
          "type": "address"
        }
      ],
      "payable": false,
      "stateMutability": "view",
      "type": "function"
    },
    {
      "constant": true,
      "inputs": [
        {
          "internalType": "uint256",
          "name": "",
          "type": "uint256"
        }
      ],
      "name": "listaEleitores",
      "outputs": [
        {
          "internalType": "uint256",
          "name": "id",
          "type": "uint256"
        },
        {
          "internalType": "string",
          "name": "nome",
          "type": "string"
        },
        {
          "internalType": "string",
          "name": "bi",
          "type": "string"
        },
        {
          "internalType": "bool",
          "name": "voto",
          "type": "bool"
        },
        {
          "internalType": "bool",
          "name": "direito",
          "type": "bool"
        },
        {
          "internalType": "bool",
          "name": "registo",
          "type": "bool"
        },
        {
          "internalType": "address",
          "name": "endereco",
          "type": "address"
        }
      ],
      "payable": false,
      "stateMutability": "view",
      "type": "function"
    },
    {
      "constant": true,
      "inputs": [],
      "name": "numeroCandidatos",
      "outputs": [
        {
          "internalType": "uint256",
          "name": "",
          "type": "uint256"
        }
      ],
      "payable": false,
      "stateMutability": "view",
      "type": "function"
    },
    {
      "constant": true,
      "inputs": [],
      "name": "numeroEleitores",
      "outputs": [
        {
          "internalType": "uint256",
          "name": "",
          "type": "uint256"
        }
      ],
      "payable": false,
      "stateMutability": "view",
      "type": "function"
    },
    {
      "constant": true,
      "inputs": [],
      "name": "numeroVotos",
      "outputs": [
        {
          "internalType": "uint256",
          "name": "",
          "type": "uint256"
        }
      ],
      "payable": false,
      "stateMutability": "view",
      "type": "function"
    },
    {
      "constant": true,
      "inputs": [],
      "name": "recenseador",
      "outputs": [
        {
          "internalType": "address",
          "name": "",
          "type": "address"
        }
      ],
      "payable": false,
      "stateMutability": "view",
      "type": "function"
    },
    {
      "constant": false,
      "inputs": [
        {
          "internalType": "string",
          "name": "nome",
          "type": "string"
        }
      ],
      "name": "registarCandidato",
      "outputs": [],
      "payable": false,
      "stateMutability": "nonpayable",
      "type": "function"
    },
    {
      "constant": false,
      "inputs": [
        {
          "internalType": "string",
          "name": "nome",
          "type": "string"
        },
        {
          "internalType": "string",
          "name": "bi",
          "type": "string"
        },
        {
          "internalType": "address",
          "name": "endereco",
          "type": "address"
        }
      ],
      "name": "registarEleitor",
      "outputs": [],
      "payable": false,
      "stateMutability": "nonpayable",
      "type": "function"
    },
    {
      "constant": false,
      "inputs": [
        {
          "internalType": "address",
          "name": "endereco",
          "type": "address"
        },
        {
          "internalType": "string",
          "name": "bi",
          "type": "string"
        },
        {
          "internalType": "uint256",
          "name": "id",
          "type": "uint256"
        }
      ],
      "name": "darDireitoDeVoto",
      "outputs": [],
      "payable": false,
      "stateMutability": "nonpayable",
      "type": "function"
    },
    {
      "constant": false,
      "inputs": [
        {
          "internalType": "uint256",
          "name": "candidatoId",
          "type": "uint256"
        }
      ],
      "name": "votar",
      "outputs": [],
      "payable": false,
      "stateMutability": "nonpayable",
      "type": "function"
    }
  ],
  "bytecode": "0x608060405234801561001057600080fd5b50336000806101000a81548173ffffffffffffffffffffffffffffffffffffffff021916908373ffffffffffffffffffffffffffffffffffffffff160217905550612608806100606000396000f3fe608060405234801561001057600080fd5b50600436106100b35760003560e01c80639ea84300116100715780639ea84300146104f5578063b4626de2146105da578063c1e8811b1461074c578063d6b8f4611461076a578063ef2c75e11461083d578063fdd97841146108f8576100b3565b806238a116146100b857806321606831146101025780636720853e14610130578063751500661461029e5780638434d9c6146104225780638f023f8514610440575b600080fd5b6100c0610916565b604051808273ffffffffffffffffffffffffffffffffffffffff1673ffffffffffffffffffffffffffffffffffffffff16815260200191505060405180910390f35b61012e6004803603602081101561011857600080fd5b810190808035906020019092919050505061093b565b005b61015c6004803603602081101561014657600080fd5b8101908080359060200190929190505050610f6b565b6040518088815260200180602001806020018715151515815260200186151515158152602001851515151581526020018473ffffffffffffffffffffffffffffffffffffffff1673ffffffffffffffffffffffffffffffffffffffff168152602001838103835289818151815260200191508051906020019080838360005b838110156101f65780820151818401526020810190506101db565b50505050905090810190601f1680156102235780820380516001836020036101000a031916815260200191505b50838103825288818151815260200191508051906020019080838360005b8381101561025c578082015181840152602081019050610241565b50505050905090810190601f1680156102895780820380516001836020036101000a031916815260200191505b50995050505050505050505060405180910390f35b6102e0600480360360208110156102b457600080fd5b81019080803573ffffffffffffffffffffffffffffffffffffffff169060200190929190505050611124565b6040518088815260200180602001806020018715151515815260200186151515158152602001851515151581526020018473ffffffffffffffffffffffffffffffffffffffff1673ffffffffffffffffffffffffffffffffffffffff168152602001838103835289818151815260200191508051906020019080838360005b8381101561037a57808201518184015260208101905061035f565b50505050905090810190601f1680156103a75780820380516001836020036101000a031916815260200191505b50838103825288818151815260200191508051906020019080838360005b838110156103e05780820151818401526020810190506103c5565b50505050905090810190601f16801561040d5780820380516001836020036101000a031916815260200191505b50995050505050505050505060405180910390f35b61042a6112dd565b6040518082815260200191505060405180910390f35b61046c6004803603602081101561045657600080fd5b81019080803590602001909291905050506112e3565b6040518084815260200180602001838152602001828103825284818151815260200191508051906020019080838360005b838110156104b857808201518184015260208101905061049d565b50505050905090810190601f1680156104e55780820380516001836020036101000a031916815260200191505b5094505050505060405180910390f35b6105d86004803603606081101561050b57600080fd5b81019080803573ffffffffffffffffffffffffffffffffffffffff1690602001909291908035906020019064010000000081111561054857600080fd5b82018360208201111561055a57600080fd5b8035906020019184600183028401116401000000008311171561057c57600080fd5b91908080601f016020809104026020016040519081016040528093929190818152602001838380828437600081840152601f19601f820116905080830192505050505050509192919290803590602001909291905050506113a5565b005b61074a600480360360608110156105f057600080fd5b810190808035906020019064010000000081111561060d57600080fd5b82018360208201111561061f57600080fd5b8035906020019184600183028401116401000000008311171561064157600080fd5b91908080601f016020809104026020016040519081016040528093929190818152602001838380828437600081840152601f19601f820116905080830192505050505050509192919290803590602001906401000000008111156106a457600080fd5b8201836020820111156106b657600080fd5b803590602001918460018302840111640100000000831117156106d857600080fd5b91908080601f016020809104026020016040519081016040528093929190818152602001838380828437600081840152601f19601f820116905080830192505050505050509192919290803573ffffffffffffffffffffffffffffffffffffffff169060200190929190505050611b05565b005b6107546122b9565b6040518082815260200191505060405180910390f35b6108236004803603602081101561078057600080fd5b810190808035906020019064010000000081111561079d57600080fd5b8201836020820111156107af57600080fd5b803590602001918460018302840111640100000000831117156107d157600080fd5b91908080601f016020809104026020016040519081016040528093929190818152602001838380828437600081840152601f19601f8201169050808301925050505050505091929192905050506122bf565b604051808215151515815260200191505060405180910390f35b6108f66004803603602081101561085357600080fd5b810190808035906020019064010000000081111561087057600080fd5b82018360208201111561088257600080fd5b803590602001918460018302840111640100000000831117156108a457600080fd5b91908080601f016020809104026020016040519081016040528093929190818152602001838380828437600081840152601f19601f8201169050808301925050505050505091929192905050506122f5565b005b61090061240d565b6040518082815260200191505060405180910390f35b6000809054906101000a900473ffffffffffffffffffffffffffffffffffffffff1681565b610943612413565b600560003373ffffffffffffffffffffffffffffffffffffffff1673ffffffffffffffffffffffffffffffffffffffff1681526020019081526020016000206040518060e001604052908160008201548152602001600182018054600181600116156101000203166002900480601f016020809104026020016040519081016040528092919081815260200182805460018160011615610100020316600290048015610a305780601f10610a0557610100808354040283529160200191610a30565b820191906000526020600020905b815481529060010190602001808311610a1357829003601f168201915b50505050508152602001600282018054600181600116156101000203166002900480601f016020809104026020016040519081016040528092919081815260200182805460018160011615610100020316600290048015610ad25780601f10610aa757610100808354040283529160200191610ad2565b820191906000526020600020905b815481529060010190602001808311610ab557829003601f168201915b505050505081526020016003820160009054906101000a900460ff161515151581526020016003820160019054906101000a900460ff161515151581526020016003820160029054906101000a900460ff161515151581526020016003820160039054906101000a900473ffffffffffffffffffffffffffffffffffffffff1673ffffffffffffffffffffffffffffffffffffffff1673ffffffffffffffffffffffffffffffffffffffff168152505090506000809054906101000a900473ffffffffffffffffffffffffffffffffffffffff1673ffffffffffffffffffffffffffffffffffffffff163373ffffffffffffffffffffffffffffffffffffffff161415610c47576040517f08c379a000000000000000000000000000000000000000000000000000000000815260040180806020018281038252601d8152602001807f456e64657265636f20696e76616c69646f207061726120766f7461722e00000081525060200191505060405180910390fd5b600115158160800151151514610ca8576040517f08c379a00000000000000000000000000000000000000000000000000000000081526004018080602001828103825260228152602001806125b26022913960400191505060405180910390fd5b600015158160600151151514610d26576040517f08c379a000000000000000000000000000000000000000000000000000000000815260040180806020018281038252601c8152602001807f4f20656c6569746f72206a61206566656374756f206f20766f746f2e0000000081525060200191505060405180910390fd5b600082118015610d3857506002548211155b610d8d576040517f08c379a000000000000000000000000000000000000000000000000000000000815260040180806020018281038252602581526020018061255f6025913960400191505060405180910390fd5b600360008154809291906001019190505550600160076000600560008560c0015173ffffffffffffffffffffffffffffffffffffffff1673ffffffffffffffffffffffffffffffffffffffff16815260200190815260200160002060000154815260200190815260200160002060030160006101000a81548160ff0219169083151502179055506001600560008360c0015173ffffffffffffffffffffffffffffffffffffffff1673ffffffffffffffffffffffffffffffffffffffff16815260200190815260200160002060030160006101000a81548160ff02191690831515021790555060066000838152602001908152602001600020600201600081548092919060010191905055507f1ec8258db0f20c97f5558cada2ad413fbc2b6639dcde55f310c62b5c892bb162600660008481526020019081526020016000206001016040518080602001828103825283818154600181600116156101000203166002900481526020019150805460018160011615610100020316600290048015610f595780601f10610f2e57610100808354040283529160200191610f59565b820191906000526020600020905b815481529060010190602001808311610f3c57829003601f168201915b50509250505060405180910390a15050565b6007602052806000526040600020600091509050806000015490806001018054600181600116156101000203166002900480601f01602080910402602001604051908101604052809291908181526020018280546001816001161561010002031660029004801561101d5780601f10610ff25761010080835404028352916020019161101d565b820191906000526020600020905b81548152906001019060200180831161100057829003601f168201915b505050505090806002018054600181600116156101000203166002900480601f0160208091040260200160405190810160405280929190818152602001828054600181600116156101000203166002900480156110bb5780601f10611090576101008083540402835291602001916110bb565b820191906000526020600020905b81548152906001019060200180831161109e57829003601f168201915b5050505050908060030160009054906101000a900460ff16908060030160019054906101000a900460ff16908060030160029054906101000a900460ff16908060030160039054906101000a900473ffffffffffffffffffffffffffffffffffffffff16905087565b6005602052806000526040600020600091509050806000015490806001018054600181600116156101000203166002900480601f0160208091040260200160405190810160405280929190818152602001828054600181600116156101000203166002900480156111d65780601f106111ab576101008083540402835291602001916111d6565b820191906000526020600020905b8154815290600101906020018083116111b957829003601f168201915b505050505090806002018054600181600116156101000203166002900480601f0160208091040260200160405190810160405280929190818152602001828054600181600116156101000203166002900480156112745780601f1061124957610100808354040283529160200191611274565b820191906000526020600020905b81548152906001019060200180831161125757829003601f168201915b5050505050908060030160009054906101000a900460ff16908060030160019054906101000a900460ff16908060030160029054906101000a900460ff16908060030160039054906101000a900473ffffffffffffffffffffffffffffffffffffffff16905087565b60035481565b6006602052806000526040600020600091509050806000015490806001018054600181600116156101000203166002900480601f0160208091040260200160405190810160405280929190818152602001828054600181600116156101000203166002900480156113955780601f1061136a57610100808354040283529160200191611395565b820191906000526020600020905b81548152906001019060200180831161137857829003601f168201915b5050505050908060020154905083565b6040518060600160405280602e8152602001612584602e91396000809054906101000a900473ffffffffffffffffffffffffffffffffffffffff1673ffffffffffffffffffffffffffffffffffffffff163373ffffffffffffffffffffffffffffffffffffffff161481906114b5576040517f08c379a00000000000000000000000000000000000000000000000000000000081526004018080602001828103825283818151815260200191508051906020019080838360005b8381101561147a57808201518184015260208101905061145f565b50505050905090810190601f1680156114a75780820380516001836020036101000a031916815260200191505b509250505060405180910390fd5b50600115156004846040518082805190602001908083835b602083106114f057805182526020820191506020810190506020830392506114cd565b6001836020036101000a038019825116818451168082178552505050505050905001915050908152602001604051809103902060009054906101000a900460ff161515148015611593575060011515600560008673ffffffffffffffffffffffffffffffffffffffff1673ffffffffffffffffffffffffffffffffffffffff16815260200190815260200160002060030160029054906101000a900460ff161515145b80156116c95750600560008573ffffffffffffffffffffffffffffffffffffffff1673ffffffffffffffffffffffffffffffffffffffff168152602001908152602001600020600201604051602001808280546001816001161561010002031660029004801561163a5780601f1061161857610100808354040283529182019161163a565b820191906000526020600020905b815481529060010190602001808311611626575b505091505060405160208183030381529060405280519060200120836040516020018082805190602001908083835b6020831061168c5780518252602082019150602081019050602083039250611669565b6001836020036101000a03801982511681845116808217855250505050505090500191505060405160208183030381529060405280519060200120145b61173b576040517f08c379a00000000000000000000000000000000000000000000000000000000081526004018080602001828103825260158152602001807f456c6569746f72206e616f2072656769737461646f000000000000000000000081525060200191505060405180910390fd5b60001515600560008673ffffffffffffffffffffffffffffffffffffffff1673ffffffffffffffffffffffffffffffffffffffff16815260200190815260200160002060030160009054906101000a900460ff16151514611804576040517f08c379a000000000000000000000000000000000000000000000000000000000815260040180806020018281038252601c8152602001807f4f20656c6569746f72206a61206566656374756f206f20766f746f2e0000000081525060200191505060405180910390fd5b60001515600560008673ffffffffffffffffffffffffffffffffffffffff1673ffffffffffffffffffffffffffffffffffffffff16815260200190815260200160002060030160019054906101000a900460ff161515146118b0576040517f08c379a000000000000000000000000000000000000000000000000000000000815260040180806020018281038252602b815260200180612534602b913960400191505060405180910390fd5b60016007600084815260200190815260200160002060030160016101000a81548160ff0219169083151502179055506001600560008673ffffffffffffffffffffffffffffffffffffffff1673ffffffffffffffffffffffffffffffffffffffff16815260200190815260200160002060030160016101000a81548160ff0219169083151502179055507fff2648476d2edaa5dddd0516b75c06473f35dfca2fb5e071ee8497ddf58c1d08600560008673ffffffffffffffffffffffffffffffffffffffff1673ffffffffffffffffffffffffffffffffffffffff168152602001908152602001600020600101600560008773ffffffffffffffffffffffffffffffffffffffff1673ffffffffffffffffffffffffffffffffffffffff168152602001908152602001600020600201604051808060200180602001838103835285818154600181600116156101000203166002900481526020019150805460018160011615610100020316600290048015611a6c5780601f10611a4157610100808354040283529160200191611a6c565b820191906000526020600020905b815481529060010190602001808311611a4f57829003601f168201915b5050838103825284818154600181600116156101000203166002900481526020019150805460018160011615610100020316600290048015611aef5780601f10611ac457610100808354040283529160200191611aef565b820191906000526020600020905b815481529060010190602001808311611ad257829003601f168201915b505094505050505060405180910390a150505050565b604051806060016040528060228152602001612512602291396000809054906101000a900473ffffffffffffffffffffffffffffffffffffffff1673ffffffffffffffffffffffffffffffffffffffff163373ffffffffffffffffffffffffffffffffffffffff16148190611c15576040517f08c379a00000000000000000000000000000000000000000000000000000000081526004018080602001828103825283818151815260200191508051906020019080838360005b83811015611bda578082015181840152602081019050611bbf565b50505050905090810190601f168015611c075780820380516001836020036101000a031916815260200191505b509250505060405180910390fd5b50600560008373ffffffffffffffffffffffffffffffffffffffff1673ffffffffffffffffffffffffffffffffffffffff16815260200190815260200160002060030160039054906101000a900473ffffffffffffffffffffffffffffffffffffffff1673ffffffffffffffffffffffffffffffffffffffff168273ffffffffffffffffffffffffffffffffffffffff161415611d1a576040517f08c379a000000000000000000000000000000000000000000000000000000000815260040180806020018281038252601b8152602001807f4f20656e64657265636f206a6120666f692072656769737461646f000000000081525060200191505060405180910390fd5b600015156004846040518082805190602001908083835b60208310611d545780518252602082019150602081019050602083039250611d31565b6001836020036101000a038019825116818451168082178552505050505050905001915050908152602001604051809103902060009054906101000a900460ff16151514611e0a576040517f08c379a00000000000000000000000000000000000000000000000000000000081526004018080602001828103825260158152602001807f4f204249206a6120666f692072656769737461646f000000000000000000000081525060200191505060405180910390fd5b60016000815480929190600101919050555060016004846040518082805190602001908083835b60208310611e545780518252602082019150602081019050602083039250611e31565b6001836020036101000a038019825116818451168082178552505050505050905001915050908152602001604051809103902060006101000a81548160ff0219169083151502179055506040518060e0016040528060015481526020018581526020018481526020016000151581526020016000151581526020016001151581526020018373ffffffffffffffffffffffffffffffffffffffff16815250600760006001548152602001908152602001600020600082015181600001556020820151816001019080519060200190611f2d92919061246c565b506040820151816002019080519060200190611f4a92919061246c565b5060608201518160030160006101000a81548160ff02191690831515021790555060808201518160030160016101000a81548160ff02191690831515021790555060a08201518160030160026101000a81548160ff02191690831515021790555060c08201518160030160036101000a81548173ffffffffffffffffffffffffffffffffffffffff021916908373ffffffffffffffffffffffffffffffffffffffff1602179055509050506040518060e0016040528060015481526020018581526020018481526020016000151581526020016000151581526020016001151581526020018373ffffffffffffffffffffffffffffffffffffffff16815250600560008473ffffffffffffffffffffffffffffffffffffffff1673ffffffffffffffffffffffffffffffffffffffff1681526020019081526020016000206000820151816000015560208201518160010190805190602001906120ae92919061246c565b5060408201518160020190805190602001906120cb92919061246c565b5060608201518160030160006101000a81548160ff02191690831515021790555060808201518160030160016101000a81548160ff02191690831515021790555060a08201518160030160026101000a81548160ff02191690831515021790555060c08201518160030160036101000a81548173ffffffffffffffffffffffffffffffffffffffff021916908373ffffffffffffffffffffffffffffffffffffffff1602179055509050507fa66fbd65918717afd1941b17760e4f2c28c5d0f7fca7b0cb28553e46e1dfed698484846040518080602001806020018473ffffffffffffffffffffffffffffffffffffffff1673ffffffffffffffffffffffffffffffffffffffff168152602001838103835286818151815260200191508051906020019080838360005b838110156122105780820151818401526020810190506121f5565b50505050905090810190601f16801561223d5780820380516001836020036101000a031916815260200191505b50838103825285818151815260200191508051906020019080838360005b8381101561227657808201518184015260208101905061225b565b50505050905090810190601f1680156122a35780820380516001836020036101000a031916815260200191505b509550505050505060405180910390a150505050565b60015481565b6004818051602081018201805184825260208301602085012081835280955050505050506000915054906101000a900460ff1681565b60026000815480929190600101919050555060405180606001604052806002548152602001828152602001600081525060066000600254815260200190815260200160002060008201518160000155602082015181600101908051906020019061236092919061246c565b50604082015181600201559050507f4a4cba5a6b39b37243212ec353877086e1c80357ff09b5868168e64f7d948c93816040518080602001828103825283818151815260200191508051906020019080838360005b838110156123d05780820151818401526020810190506123b5565b50505050905090810190601f1680156123fd5780820380516001836020036101000a031916815260200191505b509250505060405180910390a150565b60025481565b6040518060e00160405280600081526020016060815260200160608152602001600015158152602001600015158152602001600015158152602001600073ffffffffffffffffffffffffffffffffffffffff1681525090565b828054600181600116156101000203166002900490600052602060002090601f016020900481019282601f106124ad57805160ff19168380011785556124db565b828001600101855582156124db579182015b828111156124da5782518255916020019190600101906124bf565b5b5090506124e891906124ec565b5090565b61250e91905b8082111561250a5760008160009055506001016124f2565b5090565b9056fe4170656e6173206f20726563656e736561646f7220706f64652072656769737461724f20656c6569746f72206a61206c686520666f69206461646f206f206469726569746f20646520766f746f4572726f206e6f2049442065206e6f206e756d65726f2064652063616e64696461746f732e4170656e6173206f20726563656e736561646f7220706f646520646172206469726569746f20646520766f746f2e4f20656c6569746f72206e616f2074656d206469726569746f20646520766f746f2ea265627a7a723158209c0ce173a9c32518cdbbe5eff59843be4ce3bc7949dfecbabf526f9e278bc83a64736f6c63430005100032",
  "source": "//SPDX-License-Identifier: MIT\r\npragma solidity >=0.5.16 <0.9.0;\r\ncontract Eleicao {\r\n\r\n    address public recenseador;\r\n    uint256 public numeroEleitores;\r\n    uint256 public numeroCandidatos;\r\n    uint256 public numeroVotos;\r\n\r\n    mapping(string => bool) public bilhetes;\r\n    mapping(address => Eleitor) public eleitor;\r\n    mapping(uint256 => Candidato) public candidatos;\r\n    mapping(uint256 => Eleitor) public listaEleitores;\r\n    constructor() public {\r\n        recenseador = msg.sender;\r\n    }\r\n    // Estrutura (Model)\r\n    struct Candidato {\r\n        uint256 id;\r\n        string nome;\r\n        uint256 numeroVoto;\r\n    }\r\n\r\n    struct Eleitor {\r\n        uint256 id;\r\n        string nome;\r\n        string bi;\r\n        bool voto;\r\n        bool direito;\r\n        bool registo;\r\n        address endereco;\r\n    }\r\n\r\n    // Modificadores\r\n\r\n    modifier recenseadorOwner(string memory mensagem) {\r\n        require(msg.sender == recenseador, mensagem);\r\n        _;\r\n    }\r\n    // Eventos\r\n    event RegistadoCandidato(string nome);\r\n    event Registado(string nome, string bi, address endereco);\r\n    event DireitoVoto(string nome, string bi);\r\n    event Votado(string votou);\r\n\r\n    \r\n\r\n    // Funes\r\n\r\n    function registarCandidato(string memory nome) public {\r\n        numeroCandidatos++;\r\n        candidatos[numeroCandidatos] = Candidato(numeroCandidatos, nome, 0);\r\n        emit RegistadoCandidato(nome);\r\n    }\r\n\r\n    function registarEleitor(\r\n        string memory nome,\r\n        string memory bi,\r\n        address endereco\r\n    ) public recenseadorOwner(\"Apenas o recenseador pode registar\") {\r\n        \r\n        require(\r\n            endereco != eleitor[endereco].endereco,\r\n            \"O endereco ja foi registado\"\r\n        );\r\n\r\n        require(bilhetes[bi] == false, \"O BI ja foi registado\");\r\n\r\n        numeroEleitores++;\r\n        bilhetes[bi] = true;\r\n        listaEleitores[numeroEleitores] = Eleitor(numeroEleitores, nome, bi, false, false, true, endereco);\r\n        eleitor[endereco] = Eleitor(numeroEleitores, nome, bi, false, false, true, endereco);\r\n\r\n        emit Registado(nome, bi, endereco);\r\n    }\r\n\r\n    function darDireitoDeVoto(address endereco, string memory bi, uint id)\r\n        public\r\n        recenseadorOwner(\"Apenas o recenseador pode dar direito de voto.\")\r\n    {\r\n        require(\r\n            bilhetes[bi] == true &&\r\n                eleitor[endereco].registo == true &&\r\n                keccak256(abi.encodePacked(bi)) ==\r\n                keccak256(abi.encodePacked(eleitor[endereco].bi)),\r\n            \"Eleitor nao registado\"\r\n        );\r\n\r\n        require(eleitor[endereco].voto == false, \"O eleitor ja efectuo o voto.\");\r\n\r\n        require(\r\n            eleitor[endereco].direito == false,\r\n            \"O eleitor ja lhe foi dado o direito de voto\"\r\n        );\r\n\r\n        listaEleitores[id].direito = true;\r\n        eleitor[endereco].direito = true;\r\n\r\n        emit DireitoVoto(eleitor[endereco].nome, eleitor[endereco].bi);\r\n    }\r\n\r\n    function votar(uint256 candidatoId) public {\r\n        Eleitor memory _eleitor = eleitor[msg.sender];\r\n\r\n        require(\r\n            msg.sender != recenseador,\r\n            \"Endereco invalido para votar.\"\r\n        );\r\n\r\n        require(\r\n            _eleitor.direito == true,\r\n            \"O eleitor nao tem direito de voto.\"\r\n        );\r\n\r\n        require(_eleitor.voto == false, \"O eleitor ja efectuo o voto.\");\r\n\r\n        require(\r\n            candidatoId > 0 && candidatoId <= numeroCandidatos,\r\n            \"Erro no ID e no numero de candidatos.\"\r\n        );\r\n\r\n        numeroVotos++;\r\n\r\n        listaEleitores[ eleitor[_eleitor.endereco].id].voto = true;\r\n        eleitor[_eleitor.endereco].voto = true;\r\n\r\n        candidatos[candidatoId].numeroVoto++;\r\n\r\n        emit Votado(candidatos[candidatoId].nome);\r\n    }\r\n}\r\n",
  "sourcePath": "D:\\Users\\Antnio Teca\\Documentos\\EthereumProject\\e-voting\\contracts\\Eleicao.sol",
  "compiler": {
    "name": "solc",
    "version": "0.5.16+commit.9c3226ce.Emscripten.clang"
  },
  "schemaVersion": "3.4.3",
  "updatedAt": "2021-12-02T07:09:16.097Z",
  "networkType": "ethereum",
  "devdoc": {
    "methods": {}
  },
  "userdoc": {
    "methods": {}
  }
}