{
  "contractName": "Eleicao",
  "abi": [
    {
      "inputs": [],
      "payable": false,
      "stateMutability": "nonpayable",
      "type": "constructor"
    },
    {
      "anonymous": false,
      "inputs": [
        {
          "indexed": false,
          "internalType": "string",
          "name": "nome",
          "type": "string"
        },
        {
          "indexed": false,
          "internalType": "string",
          "name": "bi",
          "type": "string"
        }
      ],
      "name": "DireitoVoto",
      "type": "event"
    },
    {
      "anonymous": false,
      "inputs": [
        {
          "indexed": false,
          "internalType": "string",
          "name": "nome",
          "type": "string"
        },
        {
          "indexed": false,
          "internalType": "string",
          "name": "bi",
          "type": "string"
        },
        {
          "indexed": false,
          "internalType": "address",
          "name": "endereco",
          "type": "address"
        }
      ],
      "name": "Registado",
      "type": "event"
    },
    {
      "anonymous": false,
      "inputs": [
        {
          "indexed": false,
          "internalType": "string",
          "name": "votou",
          "type": "string"
        }
      ],
      "name": "Votado",
      "type": "event"
    },
    {
      "constant": true,
      "inputs": [
        {
          "internalType": "string",
          "name": "",
          "type": "string"
        }
      ],
      "name": "bilhetes",
      "outputs": [
        {
          "internalType": "bool",
          "name": "",
          "type": "bool"
        }
      ],
      "payable": false,
      "stateMutability": "view",
      "type": "function"
    },
    {
      "constant": true,
      "inputs": [
        {
          "internalType": "uint256",
          "name": "",
          "type": "uint256"
        }
      ],
      "name": "candidatos",
      "outputs": [
        {
          "internalType": "uint256",
          "name": "id",
          "type": "uint256"
        },
        {
          "internalType": "string",
          "name": "nome",
          "type": "string"
        },
        {
          "internalType": "uint256",
          "name": "numeroVoto",
          "type": "uint256"
        }
      ],
      "payable": false,
      "stateMutability": "view",
      "type": "function"
    },
    {
      "constant": true,
      "inputs": [
        {
          "internalType": "address",
          "name": "",
          "type": "address"
        }
      ],
      "name": "eleitor",
      "outputs": [
        {
          "internalType": "uint256",
          "name": "id",
          "type": "uint256"
        },
        {
          "internalType": "string",
          "name": "nome",
          "type": "string"
        },
        {
          "internalType": "string",
          "name": "bi",
          "type": "string"
        },
        {
          "internalType": "bool",
          "name": "voto",
          "type": "bool"
        },
        {
          "internalType": "bool",
          "name": "direito",
          "type": "bool"
        },
        {
          "internalType": "bool",
          "name": "registo",
          "type": "bool"
        },
        {
          "internalType": "address",
          "name": "endereco",
          "type": "address"
        }
      ],
      "payable": false,
      "stateMutability": "view",
      "type": "function"
    },
    {
      "constant": true,
      "inputs": [
        {
          "internalType": "uint256",
          "name": "",
          "type": "uint256"
        }
      ],
      "name": "listaEleitores",
      "outputs": [
        {
          "internalType": "uint256",
          "name": "id",
          "type": "uint256"
        },
        {
          "internalType": "string",
          "name": "nome",
          "type": "string"
        },
        {
          "internalType": "string",
          "name": "bi",
          "type": "string"
        },
        {
          "internalType": "bool",
          "name": "voto",
          "type": "bool"
        },
        {
          "internalType": "bool",
          "name": "direito",
          "type": "bool"
        },
        {
          "internalType": "bool",
          "name": "registo",
          "type": "bool"
        },
        {
          "internalType": "address",
          "name": "endereco",
          "type": "address"
        }
      ],
      "payable": false,
      "stateMutability": "view",
      "type": "function"
    },
    {
      "constant": true,
      "inputs": [],
      "name": "numeroCandidatos",
      "outputs": [
        {
          "internalType": "uint256",
          "name": "",
          "type": "uint256"
        }
      ],
      "payable": false,
      "stateMutability": "view",
      "type": "function"
    },
    {
      "constant": true,
      "inputs": [],
      "name": "numeroEleitores",
      "outputs": [
        {
          "internalType": "uint256",
          "name": "",
          "type": "uint256"
        }
      ],
      "payable": false,
      "stateMutability": "view",
      "type": "function"
    },
    {
      "constant": true,
      "inputs": [],
      "name": "recenseador",
      "outputs": [
        {
          "internalType": "address",
          "name": "",
          "type": "address"
        }
      ],
      "payable": false,
      "stateMutability": "view",
      "type": "function"
    },
    {
      "constant": false,
      "inputs": [
        {
          "internalType": "string",
          "name": "nome",
          "type": "string"
        },
        {
          "internalType": "string",
          "name": "bi",
          "type": "string"
        },
        {
          "internalType": "address",
          "name": "endereco",
          "type": "address"
        }
      ],
      "name": "registarEleitor",
      "outputs": [],
      "payable": false,
      "stateMutability": "nonpayable",
      "type": "function"
    },
    {
      "constant": false,
      "inputs": [
        {
          "internalType": "address",
          "name": "endereco",
          "type": "address"
        },
        {
          "internalType": "string",
          "name": "bi",
          "type": "string"
        },
        {
          "internalType": "uint256",
          "name": "id",
          "type": "uint256"
        }
      ],
      "name": "darDireitoDeVoto",
      "outputs": [],
      "payable": false,
      "stateMutability": "nonpayable",
      "type": "function"
    },
    {
      "constant": false,
      "inputs": [
        {
          "internalType": "uint256",
          "name": "candidatoId",
          "type": "uint256"
        },
        {
          "internalType": "uint256",
          "name": "eleitorId",
          "type": "uint256"
        }
      ],
      "name": "votar",
      "outputs": [],
      "payable": false,
      "stateMutability": "nonpayable",
      "type": "function"
    }
  ],
  "bytecode": "0x60806040523480156200001157600080fd5b50620000586040518060400160405280600781526020017f416e746f6e696f000000000000000000000000000000000000000000000000008152506200017060201b60201c565b6200009e6040518060400160405280600481526020017f4a6f7365000000000000000000000000000000000000000000000000000000008152506200017060201b60201c565b620000e46040518060400160405280600581526020017f427561696f0000000000000000000000000000000000000000000000000000008152506200017060201b60201c565b6200012a6040518060400160405280600481526020017f54656361000000000000000000000000000000000000000000000000000000008152506200017060201b60201c565b336000806101000a81548173ffffffffffffffffffffffffffffffffffffffff021916908373ffffffffffffffffffffffffffffffffffffffff1602179055506200029d565b600260008154809291906001019190505550604051806060016040528060025481526020018281526020016000815250600560006002548152602001908152602001600020600082015181600001556020820151816001019080519060200190620001dd929190620001ee565b506040820151816002015590505050565b828054600181600116156101000203166002900490600052602060002090601f016020900481019282601f106200023157805160ff191683800117855562000262565b8280016001018555821562000262579182015b828111156200026157825182559160200191906001019062000244565b5b50905062000271919062000275565b5090565b6200029a91905b80821115620002965760008160009055506001016200027c565b5090565b90565b6123ae80620002ad6000396000f3fe608060405234801561001057600080fd5b506004361061009d5760003560e01c80639ea84300116100665780639ea84300146104cb578063b4626de2146105b0578063c1e8811b14610722578063d6b8f46114610740578063fdd97841146108135761009d565b806238a116146100a25780634fa5a16f146100ec5780636720853e1461012457806375150066146102925780638f023f8514610416575b600080fd5b6100aa610831565b604051808273ffffffffffffffffffffffffffffffffffffffff1673ffffffffffffffffffffffffffffffffffffffff16815260200191505060405180910390f35b6101226004803603604081101561010257600080fd5b810190808035906020019092919080359060200190929190505050610856565b005b6101506004803603602081101561013a57600080fd5b8101908080359060200190929190505050610e2f565b6040518088815260200180602001806020018715151515815260200186151515158152602001851515151581526020018473ffffffffffffffffffffffffffffffffffffffff1673ffffffffffffffffffffffffffffffffffffffff168152602001838103835289818151815260200191508051906020019080838360005b838110156101ea5780820151818401526020810190506101cf565b50505050905090810190601f1680156102175780820380516001836020036101000a031916815260200191505b50838103825288818151815260200191508051906020019080838360005b83811015610250578082015181840152602081019050610235565b50505050905090810190601f16801561027d5780820380516001836020036101000a031916815260200191505b50995050505050505050505060405180910390f35b6102d4600480360360208110156102a857600080fd5b81019080803573ffffffffffffffffffffffffffffffffffffffff169060200190929190505050610fe8565b6040518088815260200180602001806020018715151515815260200186151515158152602001851515151581526020018473ffffffffffffffffffffffffffffffffffffffff1673ffffffffffffffffffffffffffffffffffffffff168152602001838103835289818151815260200191508051906020019080838360005b8381101561036e578082015181840152602081019050610353565b50505050905090810190601f16801561039b5780820380516001836020036101000a031916815260200191505b50838103825288818151815260200191508051906020019080838360005b838110156103d45780820151818401526020810190506103b9565b50505050905090810190601f1680156104015780820380516001836020036101000a031916815260200191505b50995050505050505050505060405180910390f35b6104426004803603602081101561042c57600080fd5b81019080803590602001909291905050506111a1565b6040518084815260200180602001838152602001828103825284818151815260200191508051906020019080838360005b8381101561048e578082015181840152602081019050610473565b50505050905090810190601f1680156104bb5780820380516001836020036101000a031916815260200191505b5094505050505060405180910390f35b6105ae600480360360608110156104e157600080fd5b81019080803573ffffffffffffffffffffffffffffffffffffffff1690602001909291908035906020019064010000000081111561051e57600080fd5b82018360208201111561053057600080fd5b8035906020019184600183028401116401000000008311171561055257600080fd5b91908080601f016020809104026020016040519081016040528093929190818152602001838380828437600081840152601f19601f82011690508083019250505050505050919291929080359060200190929190505050611263565b005b610720600480360360608110156105c657600080fd5b81019080803590602001906401000000008111156105e357600080fd5b8201836020820111156105f557600080fd5b8035906020019184600183028401116401000000008311171561061757600080fd5b91908080601f016020809104026020016040519081016040528093929190818152602001838380828437600081840152601f19601f8201169050808301925050505050505091929192908035906020019064010000000081111561067a57600080fd5b82018360208201111561068c57600080fd5b803590602001918460018302840111640100000000831117156106ae57600080fd5b91908080601f016020809104026020016040519081016040528093929190818152602001838380828437600081840152601f19601f820116905080830192505050505050509192919290803573ffffffffffffffffffffffffffffffffffffffff1690602001909291905050506119c3565b005b61072a612177565b6040518082815260200191505060405180910390f35b6107f96004803603602081101561075657600080fd5b810190808035906020019064010000000081111561077357600080fd5b82018360208201111561078557600080fd5b803590602001918460018302840111640100000000831117156107a757600080fd5b91908080601f016020809104026020016040519081016040528093929190818152602001838380828437600081840152601f19601f82011690508083019250505050505050919291929050505061217d565b604051808215151515815260200191505060405180910390f35b61081b6121b3565b6040518082815260200191505060405180910390f35b6000809054906101000a900473ffffffffffffffffffffffffffffffffffffffff1681565b61085e6121b9565b600460003373ffffffffffffffffffffffffffffffffffffffff1673ffffffffffffffffffffffffffffffffffffffff1681526020019081526020016000206040518060e001604052908160008201548152602001600182018054600181600116156101000203166002900480601f01602080910402602001604051908101604052809291908181526020018280546001816001161561010002031660029004801561094b5780601f106109205761010080835404028352916020019161094b565b820191906000526020600020905b81548152906001019060200180831161092e57829003601f168201915b50505050508152602001600282018054600181600116156101000203166002900480601f0160208091040260200160405190810160405280929190818152602001828054600181600116156101000203166002900480156109ed5780601f106109c2576101008083540402835291602001916109ed565b820191906000526020600020905b8154815290600101906020018083116109d057829003601f168201915b505050505081526020016003820160009054906101000a900460ff161515151581526020016003820160019054906101000a900460ff161515151581526020016003820160029054906101000a900460ff161515151581526020016003820160039054906101000a900473ffffffffffffffffffffffffffffffffffffffff1673ffffffffffffffffffffffffffffffffffffffff1673ffffffffffffffffffffffffffffffffffffffff168152505090506000809054906101000a900473ffffffffffffffffffffffffffffffffffffffff1673ffffffffffffffffffffffffffffffffffffffff163373ffffffffffffffffffffffffffffffffffffffff161415610b62576040517f08c379a000000000000000000000000000000000000000000000000000000000815260040180806020018281038252601d8152602001807f456e64657265636f20696e76616c69646f207061726120766f7461722e00000081525060200191505060405180910390fd5b600115158160800151151514610bc3576040517f08c379a00000000000000000000000000000000000000000000000000000000081526004018080602001828103825260228152602001806123586022913960400191505060405180910390fd5b600015158160600151151514610c41576040517f08c379a000000000000000000000000000000000000000000000000000000000815260040180806020018281038252601c8152602001807f4f20656c6569746f72206a61206566656374756f206f20766f746f2e0000000081525060200191505060405180910390fd5b600083118015610c5357506002548311155b610ca8576040517f08c379a00000000000000000000000000000000000000000000000000000000081526004018080602001828103825260258152602001806123056025913960400191505060405180910390fd5b60016006600084815260200190815260200160002060030160006101000a81548160ff0219169083151502179055506001600460008360c0015173ffffffffffffffffffffffffffffffffffffffff1673ffffffffffffffffffffffffffffffffffffffff16815260200190815260200160002060030160006101000a81548160ff02191690831515021790555060056000848152602001908152602001600020600201600081548092919060010191905055507f1ec8258db0f20c97f5558cada2ad413fbc2b6639dcde55f310c62b5c892bb162600560008581526020019081526020016000206001016040518080602001828103825283818154600181600116156101000203166002900481526020019150805460018160011615610100020316600290048015610e1c5780601f10610df157610100808354040283529160200191610e1c565b820191906000526020600020905b815481529060010190602001808311610dff57829003601f168201915b50509250505060405180910390a1505050565b6006602052806000526040600020600091509050806000015490806001018054600181600116156101000203166002900480601f016020809104026020016040519081016040528092919081815260200182805460018160011615610100020316600290048015610ee15780601f10610eb657610100808354040283529160200191610ee1565b820191906000526020600020905b815481529060010190602001808311610ec457829003601f168201915b505050505090806002018054600181600116156101000203166002900480601f016020809104026020016040519081016040528092919081815260200182805460018160011615610100020316600290048015610f7f5780601f10610f5457610100808354040283529160200191610f7f565b820191906000526020600020905b815481529060010190602001808311610f6257829003601f168201915b5050505050908060030160009054906101000a900460ff16908060030160019054906101000a900460ff16908060030160029054906101000a900460ff16908060030160039054906101000a900473ffffffffffffffffffffffffffffffffffffffff16905087565b6004602052806000526040600020600091509050806000015490806001018054600181600116156101000203166002900480601f01602080910402602001604051908101604052809291908181526020018280546001816001161561010002031660029004801561109a5780601f1061106f5761010080835404028352916020019161109a565b820191906000526020600020905b81548152906001019060200180831161107d57829003601f168201915b505050505090806002018054600181600116156101000203166002900480601f0160208091040260200160405190810160405280929190818152602001828054600181600116156101000203166002900480156111385780601f1061110d57610100808354040283529160200191611138565b820191906000526020600020905b81548152906001019060200180831161111b57829003601f168201915b5050505050908060030160009054906101000a900460ff16908060030160019054906101000a900460ff16908060030160029054906101000a900460ff16908060030160039054906101000a900473ffffffffffffffffffffffffffffffffffffffff16905087565b6005602052806000526040600020600091509050806000015490806001018054600181600116156101000203166002900480601f0160208091040260200160405190810160405280929190818152602001828054600181600116156101000203166002900480156112535780601f1061122857610100808354040283529160200191611253565b820191906000526020600020905b81548152906001019060200180831161123657829003601f168201915b5050505050908060020154905083565b6040518060600160405280602e815260200161232a602e91396000809054906101000a900473ffffffffffffffffffffffffffffffffffffffff1673ffffffffffffffffffffffffffffffffffffffff163373ffffffffffffffffffffffffffffffffffffffff16148190611373576040517f08c379a00000000000000000000000000000000000000000000000000000000081526004018080602001828103825283818151815260200191508051906020019080838360005b8381101561133857808201518184015260208101905061131d565b50505050905090810190601f1680156113655780820380516001836020036101000a031916815260200191505b509250505060405180910390fd5b50600115156003846040518082805190602001908083835b602083106113ae578051825260208201915060208101905060208303925061138b565b6001836020036101000a038019825116818451168082178552505050505050905001915050908152602001604051809103902060009054906101000a900460ff161515148015611451575060011515600460008673ffffffffffffffffffffffffffffffffffffffff1673ffffffffffffffffffffffffffffffffffffffff16815260200190815260200160002060030160029054906101000a900460ff161515145b80156115875750600460008573ffffffffffffffffffffffffffffffffffffffff1673ffffffffffffffffffffffffffffffffffffffff16815260200190815260200160002060020160405160200180828054600181600116156101000203166002900480156114f85780601f106114d65761010080835404028352918201916114f8565b820191906000526020600020905b8154815290600101906020018083116114e4575b505091505060405160208183030381529060405280519060200120836040516020018082805190602001908083835b6020831061154a5780518252602082019150602081019050602083039250611527565b6001836020036101000a03801982511681845116808217855250505050505090500191505060405160208183030381529060405280519060200120145b6115f9576040517f08c379a00000000000000000000000000000000000000000000000000000000081526004018080602001828103825260158152602001807f456c6569746f72206e616f2072656769737461646f000000000000000000000081525060200191505060405180910390fd5b60001515600460008673ffffffffffffffffffffffffffffffffffffffff1673ffffffffffffffffffffffffffffffffffffffff16815260200190815260200160002060030160009054906101000a900460ff161515146116c2576040517f08c379a000000000000000000000000000000000000000000000000000000000815260040180806020018281038252601c8152602001807f4f20656c6569746f72206a61206566656374756f206f20766f746f2e0000000081525060200191505060405180910390fd5b60001515600460008673ffffffffffffffffffffffffffffffffffffffff1673ffffffffffffffffffffffffffffffffffffffff16815260200190815260200160002060030160019054906101000a900460ff1615151461176e576040517f08c379a000000000000000000000000000000000000000000000000000000000815260040180806020018281038252602b8152602001806122da602b913960400191505060405180910390fd5b60016006600084815260200190815260200160002060030160016101000a81548160ff0219169083151502179055506001600460008673ffffffffffffffffffffffffffffffffffffffff1673ffffffffffffffffffffffffffffffffffffffff16815260200190815260200160002060030160016101000a81548160ff0219169083151502179055507fff2648476d2edaa5dddd0516b75c06473f35dfca2fb5e071ee8497ddf58c1d08600460008673ffffffffffffffffffffffffffffffffffffffff1673ffffffffffffffffffffffffffffffffffffffff168152602001908152602001600020600101600460008773ffffffffffffffffffffffffffffffffffffffff1673ffffffffffffffffffffffffffffffffffffffff16815260200190815260200160002060020160405180806020018060200183810383528581815460018160011615610100020316600290048152602001915080546001816001161561010002031660029004801561192a5780601f106118ff5761010080835404028352916020019161192a565b820191906000526020600020905b81548152906001019060200180831161190d57829003601f168201915b50508381038252848181546001816001161561010002031660029004815260200191508054600181600116156101000203166002900480156119ad5780601f10611982576101008083540402835291602001916119ad565b820191906000526020600020905b81548152906001019060200180831161199057829003601f168201915b505094505050505060405180910390a150505050565b6040518060600160405280602281526020016122b8602291396000809054906101000a900473ffffffffffffffffffffffffffffffffffffffff1673ffffffffffffffffffffffffffffffffffffffff163373ffffffffffffffffffffffffffffffffffffffff16148190611ad3576040517f08c379a00000000000000000000000000000000000000000000000000000000081526004018080602001828103825283818151815260200191508051906020019080838360005b83811015611a98578082015181840152602081019050611a7d565b50505050905090810190601f168015611ac55780820380516001836020036101000a031916815260200191505b509250505060405180910390fd5b50600460008373ffffffffffffffffffffffffffffffffffffffff1673ffffffffffffffffffffffffffffffffffffffff16815260200190815260200160002060030160039054906101000a900473ffffffffffffffffffffffffffffffffffffffff1673ffffffffffffffffffffffffffffffffffffffff168273ffffffffffffffffffffffffffffffffffffffff161415611bd8576040517f08c379a000000000000000000000000000000000000000000000000000000000815260040180806020018281038252601b8152602001807f4f20656e64657265636f206a6120666f692072656769737461646f000000000081525060200191505060405180910390fd5b600015156003846040518082805190602001908083835b60208310611c125780518252602082019150602081019050602083039250611bef565b6001836020036101000a038019825116818451168082178552505050505050905001915050908152602001604051809103902060009054906101000a900460ff16151514611cc8576040517f08c379a00000000000000000000000000000000000000000000000000000000081526004018080602001828103825260158152602001807f4f204249206a6120666f692072656769737461646f000000000000000000000081525060200191505060405180910390fd5b60016000815480929190600101919050555060016003846040518082805190602001908083835b60208310611d125780518252602082019150602081019050602083039250611cef565b6001836020036101000a038019825116818451168082178552505050505050905001915050908152602001604051809103902060006101000a81548160ff0219169083151502179055506040518060e0016040528060015481526020018581526020018481526020016000151581526020016000151581526020016001151581526020018373ffffffffffffffffffffffffffffffffffffffff16815250600660006001548152602001908152602001600020600082015181600001556020820151816001019080519060200190611deb929190612212565b506040820151816002019080519060200190611e08929190612212565b5060608201518160030160006101000a81548160ff02191690831515021790555060808201518160030160016101000a81548160ff02191690831515021790555060a08201518160030160026101000a81548160ff02191690831515021790555060c08201518160030160036101000a81548173ffffffffffffffffffffffffffffffffffffffff021916908373ffffffffffffffffffffffffffffffffffffffff1602179055509050506040518060e0016040528060015481526020018581526020018481526020016000151581526020016000151581526020016001151581526020018373ffffffffffffffffffffffffffffffffffffffff16815250600460008473ffffffffffffffffffffffffffffffffffffffff1673ffffffffffffffffffffffffffffffffffffffff168152602001908152602001600020600082015181600001556020820151816001019080519060200190611f6c929190612212565b506040820151816002019080519060200190611f89929190612212565b5060608201518160030160006101000a81548160ff02191690831515021790555060808201518160030160016101000a81548160ff02191690831515021790555060a08201518160030160026101000a81548160ff02191690831515021790555060c08201518160030160036101000a81548173ffffffffffffffffffffffffffffffffffffffff021916908373ffffffffffffffffffffffffffffffffffffffff1602179055509050507fa66fbd65918717afd1941b17760e4f2c28c5d0f7fca7b0cb28553e46e1dfed698484846040518080602001806020018473ffffffffffffffffffffffffffffffffffffffff1673ffffffffffffffffffffffffffffffffffffffff168152602001838103835286818151815260200191508051906020019080838360005b838110156120ce5780820151818401526020810190506120b3565b50505050905090810190601f1680156120fb5780820380516001836020036101000a031916815260200191505b50838103825285818151815260200191508051906020019080838360005b83811015612134578082015181840152602081019050612119565b50505050905090810190601f1680156121615780820380516001836020036101000a031916815260200191505b509550505050505060405180910390a150505050565b60015481565b6003818051602081018201805184825260208301602085012081835280955050505050506000915054906101000a900460ff1681565b60025481565b6040518060e00160405280600081526020016060815260200160608152602001600015158152602001600015158152602001600015158152602001600073ffffffffffffffffffffffffffffffffffffffff1681525090565b828054600181600116156101000203166002900490600052602060002090601f016020900481019282601f1061225357805160ff1916838001178555612281565b82800160010185558215612281579182015b82811115612280578251825591602001919060010190612265565b5b50905061228e9190612292565b5090565b6122b491905b808211156122b0576000816000905550600101612298565b5090565b9056fe4170656e6173206f20726563656e736561646f7220706f64652072656769737461724f20656c6569746f72206a61206c686520666f69206461646f206f206469726569746f20646520766f746f4572726f206e6f2049442065206e6f206e756d65726f2064652063616e64696461746f732e4170656e6173206f20726563656e736561646f7220706f646520646172206469726569746f20646520766f746f2e4f20656c6569746f72206e616f2074656d206469726569746f20646520766f746f2ea265627a7a723158208377282ec9d496f4b0512abba75c38401f132d81769d2d0091fd1d5c935ce2cc64736f6c63430005100032",
  "source": "//SPDX-License-Identifier: MIT\r\npragma solidity >=0.5.16 <0.9.0;\r\n\r\ncontract Eleicao {\r\n\r\n    address public recenseador;\r\n    uint256 public numeroEleitores;\r\n    uint256 public numeroCandidatos;\r\n\r\n    mapping(string => bool) public bilhetes;\r\n    mapping(address => Eleitor) public eleitor;\r\n    mapping(uint256 => Candidato) public candidatos;\r\n    mapping(uint256 => Eleitor) public listaEleitores;\r\n\r\n    constructor() public {\r\n        adicionarCandidato(\"Antonio\");\r\n        adicionarCandidato(\"Jose\");\r\n        adicionarCandidato(\"Buaio\");\r\n        adicionarCandidato(\"Teca\");\r\n\r\n        recenseador = msg.sender;\r\n    }\r\n\r\n    // Estrutura (Model)\r\n\r\n    struct Candidato {\r\n        uint256 id;\r\n        string nome;\r\n        uint256 numeroVoto;\r\n    }\r\n\r\n    struct Eleitor {\r\n        uint256 id;\r\n        string nome;\r\n        string bi;\r\n        bool voto;\r\n        bool direito;\r\n        bool registo;\r\n        address endereco;\r\n    }\r\n\r\n    // Modificadores\r\n\r\n    modifier recenseadorOwner(string memory mensagem) {\r\n        require(msg.sender == recenseador, mensagem);\r\n        _;\r\n    }\r\n\r\n    // Eventos\r\n\r\n    event Registado(string nome, string bi, address endereco);\r\n    event DireitoVoto(string nome, string bi);\r\n    event Votado(string votou);\r\n\r\n    \r\n\r\n    // Funes\r\n\r\n    function adicionarCandidato(string memory nome) private {\r\n        numeroCandidatos++;\r\n        candidatos[numeroCandidatos] = Candidato(numeroCandidatos, nome, 0);\r\n    }\r\n\r\n    function registarEleitor(\r\n        string memory nome,\r\n        string memory bi,\r\n        address endereco\r\n    ) public recenseadorOwner(\"Apenas o recenseador pode registar\") {\r\n        \r\n        require(\r\n            endereco != eleitor[endereco].endereco,\r\n            \"O endereco ja foi registado\"\r\n        );\r\n\r\n        require(bilhetes[bi] == false, \"O BI ja foi registado\");\r\n\r\n        numeroEleitores++;\r\n        bilhetes[bi] = true;\r\n        listaEleitores[numeroEleitores] = Eleitor(numeroEleitores, nome, bi, false, false, true, endereco);\r\n        eleitor[endereco] = Eleitor(numeroEleitores, nome, bi, false, false, true, endereco);\r\n\r\n        emit Registado(nome, bi, endereco);\r\n    }\r\n\r\n    function darDireitoDeVoto(address endereco, string memory bi, uint id)\r\n        public\r\n        recenseadorOwner(\"Apenas o recenseador pode dar direito de voto.\")\r\n    {\r\n        require(\r\n            bilhetes[bi] == true &&\r\n                eleitor[endereco].registo == true &&\r\n                keccak256(abi.encodePacked(bi)) ==\r\n                keccak256(abi.encodePacked(eleitor[endereco].bi)),\r\n            \"Eleitor nao registado\"\r\n        );\r\n\r\n        require(eleitor[endereco].voto == false, \"O eleitor ja efectuo o voto.\");\r\n\r\n        require(\r\n            eleitor[endereco].direito == false,\r\n            \"O eleitor ja lhe foi dado o direito de voto\"\r\n        );\r\n\r\n        listaEleitores[id].direito = true;\r\n        eleitor[endereco].direito = true;\r\n\r\n        emit DireitoVoto(eleitor[endereco].nome, eleitor[endereco].bi);\r\n    }\r\n\r\n    function votar(uint256 candidatoId, uint256 eleitorId) public {\r\n        Eleitor memory _eleitor = eleitor[msg.sender];\r\n\r\n        require(\r\n            msg.sender != recenseador,\r\n            \"Endereco invalido para votar.\"\r\n        );\r\n\r\n        require(\r\n            _eleitor.direito == true,\r\n            \"O eleitor nao tem direito de voto.\"\r\n        );\r\n\r\n        require(_eleitor.voto == false, \"O eleitor ja efectuo o voto.\");\r\n\r\n        require(\r\n            candidatoId > 0 && candidatoId <= numeroCandidatos,\r\n            \"Erro no ID e no numero de candidatos.\"\r\n        );\r\n\r\n        listaEleitores[eleitorId].voto = true;\r\n        eleitor[_eleitor.endereco].voto = true;\r\n\r\n        candidatos[candidatoId].numeroVoto++;\r\n\r\n        emit Votado(candidatos[candidatoId].nome);\r\n    }\r\n}\r\n",
  "sourcePath": "D:\\Users\\Antnio Teca\\Documentos\\EthereumProject\\e-voting\\contracts\\Eleicao.sol",
  "compiler": {
    "name": "solc",
    "version": "0.5.16+commit.9c3226ce.Emscripten.clang"
  },
  "schemaVersion": "3.4.3",
  "updatedAt": "2021-10-07T08:12:42.419Z",
  "networkType": "ethereum",
  "devdoc": {
    "methods": {}
  },
  "userdoc": {
    "methods": {}
  }
}